:020000041A00E0
:1000000000800010E908001A7901001A7B01001A2B
:100010007D01001A7F01001A8101001AA66FFF53AB
:100020000000000000000000000000008301001A32
:100030008501001A000000008701001AD11F001A74
:10004000BB01001ABB01001ABB01001A000000002E
:10005000BB01001ABB01001ABB01001ABB01001A48
:10006000AD22001ABB01001ABB01001ABB01001A25
:10007000091E001A491E001A891E001ACD1E001AF8
:10008000BB01001ABB01001ABB01001ABB01001A18
:10009000BB01001ABB01001ABB01001ABB01001A08
:1000A000BD01001ABB01001A9922001AA322001AEE
:1000B000BB01001ABB01001ABB01001ABB01001AE8
:1000C000D526001ADF26001AE926001ABB01001AFD
:1000D000BB01001ABB01001ABB01001ABB01001AC8
:1000E000BB01001ABB01001ABB01001ABB01001AB8
:1000F00000000000BB01001ABB01001ABB01001A7E
:1001000000000000BB01001ABB01001ABB01001A6D
:10011000BB01001A904D001A0000001040010000C1
:10012000904D001A0000081000000000904D001AC9
:100130000000002000000000904D001A0080002008
:1001400000000000904D001A00C0002000000000D8
:10015000400100107C0000000000081000000000BA
:1001600000000020000000000080002000000000CF
:1001700000C0002000000000FEE7FEE7FEE7FEE70B
:10018000FEE7FEE7FEE7FEE7FEE7002393420AD222
:1001900010B450F8044B41F8044B04339342F8D3A5
:1001A0005DF8044B7047704700238B4204D2002255
:1001B00040F8042B0433F8E77047FEE708B5002049
:1001C00001F01CFF08BDFFFFFFFFFFFFFFFFFFFF68
:1001D000FFFFFFFFFFFFFFFFFFFFFFFFFFFFFFFF2F
:1001E000FFFFFFFFFFFFFFFFFFFFFFFFFFFFFFFF1F
:1001F000FFFFFFFFFFFFFFFFFFFFFFFFFFFFFFFF0F
:10020000FFFFFFFFFFFFFFFFFFFFFFFFFFFFFFFFFE
:10021000FFFFFFFFFFFFFFFFFFFFFFFFFFFFFFFFEE
:10022000FFFFFFFFFFFFFFFFFFFFFFFFFFFFFFFFDE
:10023000FFFFFFFFFFFFFFFFFFFFFFFFFFFFFFFFCE
:10024000FFFFFFFFFFFFFFFFFFFFFFFFFFFFFFFFBE
:10025000FFFFFFFFFFFFFFFFFFFFFFFFFFFFFFFFAE
:10026000FFFFFFFFFFFFFFFFFFFFFFFFFFFFFFFF9E
:10027000FFFFFFFFFFFFFFFFFFFFFFFFFFFFFFFF8E
:10028000FFFFFFFFFFFFFFFFFFFFFFFFFFFFFFFF7E
:10029000FFFFFFFFFFFFFFFFFFFFFFFFFFFFFFFF6E
:1002A000FFFFFFFFFFFFFFFFFFFFFFFFFFFFFFFF5E
:1002B000FFFFFFFFFFFFFFFFFFFFFFFFFFFFFFFF4E
:1002C000FFFFFFFFFFFFFFFFFFFFFFFFFFFFFFFF3E
:1002D000FFFFFFFFFFFFFFFFFFFFFFFFFFFFFFFF2E
:1002E000FFFFFFFFFFFFFFFFFFFFFFFFFFFFFFFF1E
:1002F000FFFFFFFFFFFFFFFFFFFFFFFFFFFFFFFF0E
:1003000010B584B0084C24680394084C24780294F7
:10031000074C24780194009313460A460549C0B25D
:1003200002F02AF804B010BD040000100100001013
:10033000000000107C48001A08B502F02DFB15A340
:10034000D3E9002302F0BCFC00220F4B02F08EFB2D
:1003500002460B4600200C4902F0D0F902F098FD4D
:1003600000EE100AB5EEC00AF1EE10FA09D4DFED86
:10037000077AB4EEE70AF1EE10FA01DDB0EE670A93
:1003800008BD9FED030AFBE7000059400000C8428A
:10039000000000000000000000F88F40931E222B98
:1003A00002D8F0B40E4605E000230B7008467047F3
:1003B0001E46284690FBF2F502FB15042334334613
:1003C0000D4F3C5D03F8014B002DF1D1002804DBFB
:1003D000002203F801290A4609E02D221A70B31CF5
:1003E000F6E71878147803F8014902F8010B9342F4
:1003F000F7D80846F0BC70475846001A08B50121E6
:100400000C2001F0BBFA01210B2001F0B7FA012109
:100410000D2001F0B3FA01210E2001F0AFFA012105
:100420000C2001F081FB01210B2001F07DFB01215B
:100430000D2001F079FB00210E2001F075FB08BDB5
:100440002DE9F04782B08246894690461F46002437
:100450002546264600E001240DF10701052001F0A4
:1004600089FE0346B8B10A20002101F0ADFF9DF8D6
:1004700007303D2BEFD03B2B07D084B17A1EAA4228
:10048000EADD09F805300135E6E700230AF8063011
:1004900009F805300123184602B0BDE8F08708F1DD
:1004A000FF32B242D8DD0AF806300136D4E7FFFF4A
:1004B00010B582B0C4B20849204601F0D4FE4FF412
:1004C0007A720023CDE9002304220449204601F07A
:1004D000A0FE02B010BD00BF4846001A5046001AE8
:1004E00008B501280CD001210D2001F01DFB0121D0
:1004F0000B2001F019FB01210C2001F015FB08BDB8
:1005000000210D2001F010FB00210B2001F00CFB5D
:1005100000210C2001F008FBF1E7FFFF70B52DED85
:10052000028B82B00646714801F07AFF18B902B01A
:10053000BDEC028B70BDF6B2304601F087FB05467C
:100540000021084602F0A4F8FCEEC07A17EE904AAB
:100550000A2267492846FFF721FF2846FFF7ECFEED
:10056000B0EE408AFDEEC07ACDED017A614D2B46AA
:1005700017EE902A21460520FFF7C2FE2B46019A6E
:1005800021460320FFF7BCFE5B49032001F06BFE10
:100590005A4B1B7807EE903AF8EEE77AF4EEC87AF9
:1005A000F1EE10FA40F39980554B1B78A34240F2CC
:1005B0008C80524B1B7807EE903AF8EEE77AF4EE17
:1005C000C87AF1EE10FA3EDD4D4B1B78A3423AD9C2
:1005D000304601F03BFB04460A224549FFF7DEFEA8
:1005E0002046FFF7A9FEB0EE408A0021084602F03F
:1005F0004FF8FCEEC07A17EE904A01210E2001F070
:1006000093FAFDEEC87ACDED017A3E4D2B4617EEFA
:10061000902A21460520FFF773FE2B46019A2146BA
:100620000320FFF76DFE3449032001F01CFE00207B
:10063000FFF756FF00210C2001F076FA00210D2073
:1006400001F072FAB5E700210E2001F06DFA062CD8
:100650001DD90020FFF744FF00210C2001F064FAAF
:10066000FDEEC87ACDED017A224D2B4617EE902A89
:1006700021460520FFF744FE2B46019A2146032020
:10068000FFF73EFE1C49032001F0EDFD4FE700207F
:10069000FFF726FF00210D2001F046FAFDEEC87A93
:1006A000CDED017A134D2B4617EE902A21460520F9
:1006B000FFF726FE2B46019A21460320FFF720FE76
:1006C0000D49032001F0CFFD31E70020FFF708FFBF
:1006D00000210D2001F028FA29E70020FFF700FF94
:1006E00000210C2001F020FA21E700BF900100104A
:1006F000400100106C48001AB446001A00000010B7
:10070000010000107448001A00B5B3B001F0DCFD20
:100710000120002101F058FE0120002101F01AFC07
:10072000002001F037FA3220002101F04DFE4FF495
:100730001651032001F0E0FC3220002101F044FEBC
:100740005249032001F08FFD4FF47A720023504884
:1007500001F056FEFFF752FE4FF41651052001F04E
:10076000CBFC3220002101F02FFE4A49032001F08A
:100770007AFD0021084601F035FF3220002101F00A
:1007800023FE4549032001F06EFD0520FFF790FE92
:1007900020B14249032001F066FD39E040490320C1
:1007A00001F061FD34E03F4919A803F002FDE8B112
:1007B0003D4919A803F0FDFC002847D03B4919A882
:1007C00003F0F7FC002851D0394919A803F0F1FCD7
:1007D000002856D1684602F02DFDC21ED2B2354B1C
:1007E0001A703549032001F0C7FD09E0334803F0D2
:1007F00095FC0020FFF774FE00210E2001F094F913
:1008000000212F4801F08AFB3220002101F0DCFD9D
:1008100064231A4669460DEB0300FFF711FE00281A
:10082000EED019A9274803F0F3FB274919A803F0D4
:10083000C0FC0028B7D1254803F070FC0120FFF769
:100840004FFE01210E2001F06FF9D9E7684602F052
:10085000F1FC02461E4C206000230D4801F000FE12
:1008600022681C49032001F087FDC9E7684602F0B1
:10087000E1FCC2B2184B1A701849032001F07CFD4C
:10088000BEE719A9164803F0C3FBB9E7A046001A52
:1008900090010010B846001AEC46001A2047001AD2
:1008A0004447001A8C47001AB047001AE047001A64
:1008B0001448001A010000101C48001A9847001A3A
:1008C0001D05001A5447001A6C47001A7447001A95
:1008D00004000010B847001A00000010E847001A92
:1008E0004C48001A7047FFFF10B572B6194B1A4AF0
:1008F0001A600433194A1A60002305E0184A4FF0C1
:10090000FF3142F823100133072BF7D962B6154B9C
:1009100007E003F10C049A6859681868FFF735FC82
:100920002346114A9342F4D306E01C46596854F812
:10093000080BFFF739FC23460C4A9342F5D300F02D
:10094000D9FF02F0A7FFFFF7CDFFFFF7DDFE30BFB5
:10095000FDE700BF003105400010DF10FFF7DF01A9
:1009600080E200E01401001A5001001A7801001A18
:1009700070477047092303604FF0FF3070475823DA
:1009800003604FF0FF307047022904D90923036048
:100990004FF0FF30704701207047582303604FF03D
:1009A000FF30704702291FD82DE9F0411D46174638
:1009B00006460024AC4211D200F087F9B0F1FF3FA7
:1009C000F8D004F1010838550D2803D00A2801D0C9
:1009D0004446EFE700F079F9404603E01323336023
:1009E0004FF0FF30BDE8F081132303604FF0FF307C
:1009F000704702290CD870B51D4616460024AC423B
:100A000004D2305D00F05CF90134F8E7284670BD8F
:100A1000132303604FF0FF307047FFFF054B1B6847
:100A200023B1044B1868014419607047014B024A16
:100A30001A60F6E74C010010BC01001000231C2BCB
:100A400012D810B4094A02EB830112F823404A7805
:100A5000488802EB4412064941F8220001331C2B5E
:100A6000F0D95DF8044B7047704700BFF848001A92
:100A70000060084010B5174AD2F8203123F47043C3
:100A800043F41043C2F82031D2F8243123F47043E8
:100A900043F41043C2F8243101220F49062000F02C
:100AA000C5FA00244CB10B4B5A6822F00C025A6074
:100AB0005A6842F003025A6010BD084800EB8401F6
:100AC00001238A78497810F8240000F087FD01346A
:100AD000E8E700BF0030044000CB280CF448001ABF
:100AE00008B5FFF7ABFFFFF7C5FF08BD0022052AD9
:100AF00019D870B40C4911F8125001EB42014C782E
:100B00000A4B05F5006653F826100120A04001436A
:100B100043F8261003EB4513002119550132052A2D
:100B2000E8D970BC704770477849001A00400F4000
:100B30000023032B16D830B40B4911F8132001EB16
:100B400043014D78094C02F5006254F8221001204F
:100B5000A84021EA000144F822100133032BEBD90D
:100B600030BC7047704700BF7049001A00400F400A
:100B70000023082B16D830B40B4911F8132001EBD1
:100B800043014D78094C02F5006254F8221001200F
:100B9000A84021EA000144F822100133082BEBD9C8
:100BA00030BC7047704700BF8449001A00400F40B6
:100BB00010B582B0084C6946204600F087F9074A14
:100BC0006946204600F0EDF900226946204600F013
:100BD00001FA02B010BD00BF00300E40801A0600BE
:100BE00010B50B4C204600F0B7F8636823F00403FF
:100BF0006360236823F0FF0343F007032360054984
:100C0000204600F08AF8636843F00203636010BD79
:100C100000500C40A086010008B5002000F0C8F884
:100C2000044B40F60802C3F8842C0349002000F06E
:100C3000D1F808BD0060084040420F0010B5074CD5
:100C4000204600F09FFD4FF4E131204600F0E4FD26
:100C50000323E3600123E36510BD00BF00100C40D7
:100C6000034B5B6913F0200FFAD0014B18607047FB
:100C700000100C40054B5B6913F0010F03D0034BD0
:100C80001868C0B270474FF0FF30704700100C403A
:100C900008B5FFF7D3FF094800F0B8F8FFF768FF81
:100CA000FFF786FFFFF79CFFFFF7B6FFFFF71EFF7A
:100CB000FFF73EFF00F066FA08BD00BF00400F409E
:100CC00008B5C0B2FFF7CCFF08BD08B5FFF7D2FFEB
:100CD00008BD08B5FFF7B2FF08BDFFFF034B984200
:100CE00001D083207047A520704700BF00500C4002
:100CF000044B984202D040F2022070474FF4F1704A
:100D0000704700BF00500C40036823F47F43090282
:100D100089B2194301600261704770B506460D46FD
:100D2000FFF7E6FF00F0F2FC02224FF0FF33002154
:100D300000E02146AB420BD94C1C02FB04F3B0FB94
:100D4000F3F39D42F6D2FF2CF3D902320021F1E7F2
:100D50003046FFF7D9FF70BD10B50446FFF7BEFF60
:100D600000F0A0FC2046FFF7C3FF00F09BFC636887
:100D700023F004036360236823F0FF0343F00703B9
:100D8000236002492046FFF7C8FF10BDA08601007E
:100D9000012909D1C0EBC0008200044B13441A6939
:100DA000137DDBB2042BFBD0704700BF080000109E
:100DB00070B50546064EC400221A93003344988845
:100DC00000F070FC641BA300F3586C229A6170BDA4
:100DD000080000102DE9F0410C460B4EC5002B1AFF
:100DE0004FEA830806EB0803988800F08FFCB0FBFD
:100DF000F4F056F8083042081A6156F808301A69BB
:100E0000801A5861BDE8F081080000107047FFFFAC
:100E1000094B98420BD0A3F58053984209D0A3F513
:100E20007833984201D08420704785207047A420F1
:100E30007047A320704700BF00400C4008B5FFF783
:100E4000E7FF00F02FFC08BD426800234360012348
:100E50008360022343608368002BFCD142607047AB
:100E6000034B984201D0032070470420704700BF15
:100E700000400E4070B50D4614461E46FFF7F0FFC9
:100E800000F044FC55B104FB06F404EB40006400A0
:100E9000B0FBF4F0C0B20138C0B270BD04EB840303
:100EA00004EB4304F1E7036823F0E06343EA0161E4
:100EB00001607047043150F82130002B04DAC3F38D
:100EC00089131380012070470020704738B505460C
:100ED0000C46FFF7C5FF01231A46194600F0C4FB74
:100EE0000021E960084A2260217161710B232846C4
:100EF000FFF7C0FF000240F400132079400400F423
:100F000060201843286038BD801A060008B54FF4E9
:100F10008072C26000220260FFF7A2FF00F0DCFBDB
:100F200008BD08B5FFF7C6FF08BD012A0AD01AB1EF
:100F3000022A0FD000207047006BC84000F001006B
:100F4000C0B270470831C9B2006BC84000F0010060
:100F5000C0B27047036B1B0C14BF01200020704708
:100F6000012A06D0C36801228A4023EA0203C36033
:100F7000704710B4C4688A401443C4605DF8044BE1
:100F8000704708B5012904D932B1036843F0006302
:100F90000360FFF788FF08BD036823F00063036068
:100FA000F7E770B505460E46046824F46F2424F470
:100FB00070640A600B79C3F10B03DBB24979FFF768
:100FC00059FF44EA002033795B0403F460230343B0
:100FD0002B6070BD08B50A710A68FFF7E2FF08BD13
:100FE000012A0AD0026822F0E0620260036801224E
:100FF0008A4023EA02030360704710B404688A4001
:10100000144304605DF8044B704738B504460D4640
:101010000021FFF748FF25B9236823F480332360BC
:1010200038BD236843F480332360F9E770B58AB094
:1010300005460E4614464CF250330993062818D044
:10104000002301222946042000F0C8FA4A4A536CC2
:1010500043F0010353648DF8085001A9304600F0B5
:1010600035FA464B9E4216D9019B13F0400F03D030
:10107000FEE700F08DF9E3E713F0800F05D023F0D1
:10108000800301930025012607E0049B01330493AC
:101090000125002601E000252E469DF80820019B31
:1010A00043EA0263059A43EA0243039A43EA02339E
:1010B000049A43EA022343F400632F4A53642E4BFD
:1010C0001B6C13F0010FFAD0002301220921042028
:1010D00000F084FA06B34CF250330993099B5A1E70
:1010E0000992002BFAD1019B43F0800301939DF8F4
:1010F000082043EA0263059A43EA0243039A43EA5B
:101100000233049A43EA022343F400631A4A536405
:10111000002C2ED10AB070BD002DF9D04CF2503306
:101120000993099B5A1E0992002BFAD1049B5A1E5F
:1011300004929DF80810019B43EA0163059943EA74
:101140000143039943EA013343EA022343F4006372
:10115000094A5364DCE70A4800EB8401CB788A78BB
:10116000497810F8240000F039FA0134112CF2D932
:10117000D0E70024FAE700BF0000054080778E0624
:101180009C49001A08B5692000F0C0FA014B1860AC
:1011900008BD00BFA8010010F0B40B6813F0800F69
:1011A00002D023F040030B60074601253AE04B696B
:1011B00003FB02F3B3FBF5F31CE01C46B0EB040C9D
:1011C00027D4674506D98D60771CCF600A618C6192
:1011D000CB6167460132B2F5807F1DDC0C6814F0EC
:1011E000400FE4D0731C02FA03FC4B6903FB0CF3C1
:1011F000B3FBF5F3DFF838C06345EBD9DFF834C053
:10120000634509D814F0800FD7D1741C23FA04F475
:10121000D4E7CCF1000CD4E70136032E01DC012227
:10122000D9E70135042D01DC0026F6E7F0BC704754
:10123000FF5E4C0900D01213F0B599B005460C467C
:101240005C22002101A802F04DFB8023009363691A
:10125000059323798DF8043069462846FFF79CFFF3
:10126000069BAB4227D0EB1A2ED41E46109B23F0D0
:10127000400310936369159323798DF8443010A9C6
:101280002846FFF789FF169BAB421FD0EB1A25D4E7
:101290001F462B4B9D4223D90E9BED1A33D4AE42F1
:1012A0003BDCBE4231DC6D460FCD0FC495E80F002C
:1012B00084E80F0006E06D460FCD0FC495E80F00DF
:1012C00084E80F0019B0F0BD5B42CEE710AD0FCD42
:1012D0000FC495E80F0084E80F00F3E75B42D7E7FF
:1012E0004023089363690D9308A92846FFF754FF2C
:1012F0000E9BAB42D0D108AD0FCD0FC495E80F00C7
:1013000084E80F00DEE76D42C9E710AD0FCD0FC4D2
:1013100095E80F0084E80F00D4E7AF4207DB08AD83
:101320000FCD0FC495E80F0084E80F00CAE710AD99
:101330000FCD0FC495E80F0084E80F00C2E700BF8F
:1013400080778E0630B4054600231C2000E0013370
:101350001C2818D103EB430251000C4A0A441479AB
:10136000844210D003EB43014A0008498A5AAA423A
:10137000EDD803EB43025100044A0A445288AA42C2
:10138000E5D32046E4E730BC704700BFF049001ABF
:1013900082B04FF47A7301930D4A936923F00201EE
:1013A00092698A4201D00A4A916123F00303094AF3
:1013B0001168094A914201D943F00403044A936138
:1013C000019B5A1E0192002BFAD102B0704700BF58
:1013D000000005409849001AFF2C31011230054BDE
:1013E00053F8200010F0010F02D1C0F304607047E1
:1013F000112070470000054000F11202034B53F822
:101400002220034B185C00EA920070470000054060
:10141000E849001A08B510280AD8DFE800F0440BA4
:101420000D18210924272A2D09093034383C4000A1
:1014300000203AE01E4838E01E4BD3F82C3103F070
:101440000703042B01D01C482FE000202DE0194B8E
:10145000D3F82C3103F00703042B27D0164824E0DF
:10146000164B186821E0164B18681EE0154B1868DB
:101470001BE0144B586818E000F068F815E00021F4
:1014800000F09AF811E0012100F096F80DE0022139
:1014900000F092F809E0032100F08EF805E0042145
:1014A00000F08AF801E04FF4004008BD0648FCE770
:1014B000001BB7000030044040787D016C49001AE1
:1014C0009849001A5001001080F0FA0238B505461C
:1014D0000C460879FFF79EFF6061194B2B44194AAF
:1014E000934221D818B3802323600023A360E360D4
:1014F000B5FBF0F32361144A954203D903FB00F0D6
:10150000A84207D021462846FFF796FEA3688BB174
:10151000013BA360236983B1E2680AB1013AE2604A
:10152000013B2361002038BD4FF0FF30FBE74FF057
:10153000FF30F8E74FF0FF30F5E74FF0FF30F2E70C
:10154000103A6BFF1005940BFF5E4C0930B583B069
:10155000174D6C6CC4F30360FFF75CFF154B1B6801
:1015600001932B6C13F0010F20D0C4F30743C4F395
:101570000132C4F30121C4F38015013301320DF1AE
:10158000080C614411F8041C14F0800F08D13DB917
:101590004900B3FBF1F3B0FBF2F000FB03F003E012
:1015A000B0FBF2F003FB00F003B030BD0020FBE71E
:1015B00000000540E449001A38B50C460846FFF71C
:1015C0000DFF05462046FFF717FF04462846FFF7A4
:1015D00021FF0134B0FBF4F038BDFFFF30B400F15F
:1015E0001604A40004F1804404F5A02464681B28B8
:1015F00013D811291AD00E4D25400AB145F40065C3
:101600000BB145F0010545EA01651630800000F197
:10161000804000F5A020456008E044F00104163049
:10162000800000F1804000F5A020446030BC70478D
:10163000FEF7FFE01B280CD81630800000F1804038
:1016400000F5A020406810F0010F04D1C0F3046041
:101650007047112070471120704708B5FFF7EAFF67
:10166000FFF7D8FE08BDFFFF71B901210AB141F0B3
:101670000401022B0AD0B0F5A17F0AD3A0F5917026
:10168000064B43F8301070470321EFE741F020018B
:10169000F1E72030024B43F830107047002005403E
:1016A00000100540B0F5A17F09D3094AA0F591705B
:1016B00052F8303043F0010342F830307047054AA9
:1016C000203052F8303043F0010342F83030704798
:1016D0000020054000100540B0F5A17F09D3094A5C
:1016E000A0F5917052F8303023F0010342F8303009
:1016F0007047054A203052F8303023F0010342F899
:1017000030307047002005400010054010B5B0F59E
:10171000A17F09D3A0F591730D4A52F8334014F01C
:10172000010F07D1002010BD00F12003094A52F833
:101730003340F4E7FFF706FEFFF78FFF14F0E00FEA
:1017400003D10123B0FBF3F0EDE70223FAE700BF7A
:101750000020054000100540094B984209D003F5D0
:101760008053984207D0A3F58023984205D00020EB
:10177000704702207047032070470120704700BF68
:1017800000100C4030B583B00446FFF7E5FF01239D
:101790001A4619460E4D35F81000FFF765FF07236E
:1017A000A3600023E3656360E3602362E364636531
:1017B0002365084B9C4206D00323E3601023A362F9
:1017C000019B03B030BD00232361A3690193F3E7BC
:1017D000644A001A0020084038B505460C46FFF759
:1017E000BBFF0C4B33F81000FFF790FF2301B0FB59
:1017F000F3F3D9B2EA6842F08002EA602960C3F3E9
:1018000007226A60EA6822F08002EA60B0FBF3F027
:10181000000938BD5C4A001A2DE9F04F83B00190F1
:101820008846FFF799FF324B33F81000FFF76EFF41
:1018300006464FF0FF3701244FF0000BA246D94671
:101840002AE042424B1C17E00AB31746AB46A246B9
:1018500099460135AC421ED933093007A4FB00017B
:1018600004FB0311621908FB02F2002301F060FB84
:1018700002460B460028E4DB9742EAD3002BE8D06F
:10188000190CE6D1022BDFD8002DDDD0E1E7174699
:10189000AB46A246994601341FB10F2C01D8002552
:1018A000D8E7B9F1000F1ED0019A1146D36843F072
:1018B0008003D3605FFA89F31360C9F30723536091
:1018C000D36823F08003D3604FEA0A13DBB20BF036
:1018D0000F0213438B6233090AFB03F3DA4409FB5B
:1018E0000AF9B3FBF9F9484603B0BDE8F08F00BF31
:1018F0005C4A001A08B50B4A0B4B9A6003F50C734F
:101900001B6903F47F63202B04D0FFF7E9F8FFF78E
:10191000BFF908BD044AD2F8883043F47003C2F816
:101920008830F2E70000001A00ED00E0044B186078
:10193000044A136843F0010313600120704700BF9D
:1019400040000010001000E030B40B4D00EB8000B0
:101950002C182856087094F90110117094F902207F
:101960001A7094F90320029B1A7094F90420039BC7
:101970001A7030BC704700BF6C4A001A10F1020F99
:1019800000F0C780B0F1FF3F00F0C58070B584B0B3
:101990000C4600238DF80F308DF80E308DF80D3089
:1019A0008DF80C308DF80B300DF10B03019303AB68
:1019B00000930DF10D030DF10E020DF10F01FFF774
:1019C000C3FF052C00F2A980DFE804F00981274558
:1019D00063035348FFF71AFA012004B070BD9DF865
:1019E0000F109DF80E309DF80D2042F0D00203EB51
:1019F00041134C4941F823209DF80C309DF90B20F0
:101A0000012000FA02F1464C03F5006354F823204C
:101A100022EA010244F82320DFE79DF80F109DF829
:101A20000E309DF80D2042F0C00203EB41133D49FA
:101A300041F823209DF80C309DF90B20012000FA7D
:101A400002F1374C03F5006354F8232022EA010227
:101A500044F82320C1E79DF80F109DF80E309DF843
:101A60000D2042F0D80203EB41132E4941F8232008
:101A70009DF80C309DF90B20012000FA02F1284C52
:101A800003F5006354F8232022EA010244F82320DE
:101A9000A3E79DF80F109DF80E309DF80D2042F041
:101AA000C80203EB41131F4941F823209DF80C3075
:101AB0009DF90B20012000FA02F1194C03F5006397
:101AC00054F8232022EA010244F8232085E79DF8F8
:101AD0000F109DF80E309DF80D2042F0D00203EB60
:101AE0004113104941F823209DF80C409DF90B202B
:101AF000012000FA02F10A4B04F5006553F8256055
:101B0000314343F82510D2B203EB4413002199541A
:101B100063E7002070470020704700205DE700BFAA
:101B200000400F400060084010F1020F2DD0B0F1CE
:101B3000FF3F2CD010B584B00C4600238DF80F3039
:101B40008DF80E308DF80D308DF80C308DF80B308F
:101B50000DF10B03019303AB00930DF10D030DF198
:101B60000E020DF10F01FFF7EFFE9DF80C309DF80E
:101B70000B20211C18BF01215B0103F1402303F559
:101B800070239954012004B010BD0020704700203C
:101B90007047FFFF30B583B018B101284AD003B0B9
:101BA00030BD264B6D4693E8030085E80300244CC6
:101BB00029462046FFF78AF900212046FFF725FA3B
:101BC000204A29462046FFF7ECF900220121204651
:101BD000FFF706FA002201212046FFF7C1F9002293
:101BE00002212046FFF7FCF9002202212046FFF7E0
:101BF000B7F9002203212046FFF7F2F90022032162
:101C00002046FFF7ADF9002204212046FFF7E8F94E
:101C1000002204212046FFF7A3F90B4AD2F8883CA2
:101C200043F01003C2F8883C002205212046FFF74C
:101C300097F9B4E70248FFF769F9B0E7544B001A87
:101C400000300E40400D03000060084070B582B0C7
:101C50000130C4B20026ADF80660114D01222146C4
:101C60002846FFF7BDF9324601212846FFF789F9DA
:101C7000002221460A48FFF758F90128F8D1084DFB
:101C80000DF1060221462846FFF74BF900222146B6
:101C90002846FFF7A5F9BDF8060002B070BD00BFE9
:101CA00000300E40FEE770472DE9F041002977D063
:101CB000054617460E4604463E49430003449A0033
:101CC00001EB02088858FFF7B9F898F8043003F0E0
:101CD0001F015B0901228A404033374941F8232024
:101CE00004EB44039A00334B13441B795A095432D2
:101CF000314951F8221003F01F03012202FA03F3C5
:101D00001942EDD02B4905FA02F32B449A0001EB5E
:101D100002088C582046FFF797F82B01274AD75026
:101D2000636943F001036361A661636943F00203E1
:101D30006361636843F001036360D8F8082053B21D
:101D4000002B30DB03F1604303F56143C02283F8CD
:101D5000002305EB45039A00164B13449A6853B2CF
:101D6000002B08DB02F01F025B09012101FA02F2DD
:101D7000134941F8232005EB4505AA000D4B1344F8
:101D80009A6853B2002B09DB02F01F025B090121A4
:101D900001FA02F260330A4941F82320BDE8F081DC
:101DA0000020FFF77FFF02F00F02064B1344C02212
:101DB0001A76CEE75C4B001A003005404400001054
:101DC00000E100E0FCEC00E0CC2303FB00F07047F6
:101DD00030B401EB80050A4C44F8253000EB40009C
:101DE00083000848C35849B2586901EB41050124F2
:101DF000AC4020435861063143F8212030BC704785
:101E0000440000105C4B001A38B5002401E0013496
:101E1000E4B2032C12D865B2094B1A6804F00F0122
:101E200001238B401A42F2D0064B53F82430002095
:101E300098470123AB40024A1360E8E738BD00BF72
:101E4000004008404400001038B5002401E001348F
:101E5000E4B2032C13D865B2094B1A6804F00F01E1
:101E600001238B401A42F2D0231D064A52F8233038
:101E7000002098470123AB40014A1360E7E738BDD3
:101E8000005008404400001038B5002401E001343F
:101E9000E4B2032C14D865B20A4B1A6804F00F019F
:101EA00001238B401A42F2D004F10803064A52F88B
:101EB0002330002098470123AB40024A1360E6E735
:101EC00038BD00BF00300C404400001038B500247D
:101ED00001E00134E4B2032C14D865B20A4B1A684D
:101EE00004F00F0101238B401A42F2D004F10C03DD
:101EF000064A52F82330002098470123AB40024A9B
:101F00001360E6E738BD00BF00400C4044000010FD
:101F1000014BD3E9000170476001001030B1054A60
:101F20001060012021B1044B196070470020F9E7CF
:101F300000207047680100105801001018B1044BD0
:101F400007221A607047024B00221A60704700BFD8
:101F500010E000E038B550EA01042AD010F1FF3259
:101F600041F1FF33002B08BF322A27D2144BC3E9BB
:101F70000001144B1B68A3FB004503FB01554FF404
:101F80007A7200232046294600F0D2FF0138B0F1D2
:101F9000807F09D20C4B58600C4AE02182F8231054
:101FA00000229A6007221A600120FFF7C7FF012074
:101FB00038BD0020FFF7C2FF0020F9E70020F7E757
:101FC00088000010A801001010E000E000ED00E023
:101FD00008B5074A13685168013341F100011360E5
:101FE0005160044B1B6813B1034A1068984708BD41
:101FF00060010010680100105801001070B504461F
:1020000000EB400293001F4AD6587569EDB215F0F7
:10201000010F09D020B91C4B1B680BB10020984759
:10202000032C13D0052C18D015F0200F0DD0736899
:1020300013F0020F09D024B9144B1B680BB1002018
:102040009847032C10D0052C15D070BD104B1B6881
:10205000002BE7D000209847E4E70E4B1B68002BCD
:10206000E2D000209847DFE70B4B1B68002BEAD03B
:1020700000209847E7E7094B1B68002BE5D00020BC
:102080009847E2E78C4B001A6C01001078010010B1
:1020900070010010740100107C010010800100101C
:1020A00000EB40008300034AD358586900F0010058
:1020B000704700BF8C4B001A00EB40008300034ABE
:1020C000D358586900F02000704700BF8C4B001AAD
:1020D00000EB40008300024AD3581868C0B2704732
:1020E0008C4B001A00EB40008300024AD358196061
:1020F000704700BF8C4B001A2DE9F8438046894693
:10210000194C45002A189300E618E7583846FFF79F
:1021100039FB49463846FFF75FFB0723BB603B6846
:102120000123FB6530797379B27942F018020F49C7
:1021300003EB401341F82320F079337A727A42F0AE
:10214000D00203EB401341F82320B8F1010F01D076
:10215000BDE8F883064AD36C43F03003D3641A22F7
:10216000C1F80823F4E700BF8C4B001A0060084058
:102170000010084038B505460C46FFF791FF0346AE
:1021800008B9184638BD2846FFF7A2FF2070012382
:10219000F7E710B582B00C460B78042B36D8DFE891
:1021A00003F003102F353200D1E9042301F11800A8
:1021B00000F026F90023638101232370207802B008
:1021C00010BD0DF10701FFF7D5FF30B162686389DB
:1021D000D15C9DF80720914208D004F1180000F06E
:1021E0001FF90028EAD004232370E7E701339BB2EC
:1021F00063812289013A9342EFD102232370ECE7F5
:1022000000230B70DAE700230B70D7E700230B7075
:10221000D4E710B58CB0044600208DF80000019181
:10222000ADF80820DDE90E23CDE90423022806D00D
:10223000042804D069462046FFF7ABFFF6E70428E0
:1022400002D001200CB010BD0020FBE738B50446D9
:102250000D462046FFF730FF0028FAD029462046D9
:10226000FFF740FF38BD38B505460C46217821B14F
:102270002846FFF7EBFF0134F8E738BDF8B507460D
:102280000E4615460024AC4205D2315D3846FFF7B4
:10229000DDFF0134F7E7F8BD08B50320FFF7AEFE18
:1022A00008BD08B50520FFF7A9FE08BD08B5044B19
:1022B0001B681B68DB68034A1068984708BD00BFAD
:1022C000AC0100108401001008B5FEF75BFF1A4B4B
:1022D0001868FFF72BFB01200021FFF73BFE0521CB
:1022E0000020FFF74BFB00212420FFF747FB0021D4
:1022F0002520FFF743FB00212620FFF73FFB0021AD
:102300002720FFF73BFB01212820FFF737FB0121A6
:102310002920FFF733FB01212A20FFF72FFB0121A2
:102320002B20FFF72BFB01212C20FFF727FB01219E
:102330002D20FFF723FB08BDA801001010B514469F
:10234000C0B2FFF79BFF204610BD70B582B00646B5
:102350000C4615466DB10DF10701F0B2FFF70AFF0B
:102360000028F7D021469DF8073001F8013B0C46C4
:10237000F0E7002002B070BD0EB430B584B0054661
:1023800007AB53F8044B03930D4B03F1080292E89B
:1023900003008DE803000CCB0A49284601F040FAFF
:1023A0000546039A214601F09FFC0446284600F0AA
:1023B000B1FF204604B0BDE8304003B0704700BF15
:1023C000D84B001AD44B001A2DE9F84380468946B1
:1023D000FFF79EFD06460F46FFF79AFD841B61EB53
:1023E0000705064BD3E900234046494600F0A0FD0F
:1023F0008D4208BF8442EFD3BDE8F8838800001007
:1024000010B5044610461946044BD3E9002300F0EA
:102410008FFDC4E902010023237410BD8800001061
:10242000F8B50446057C3DB9FFF772FDC4E900012B
:10243000012323742846F8BDFFF76AFD236862680C
:10244000C61A61EB0207D4E902239F4208BF9642F5
:1024500003D3002323740125ECE70025EAE7FFFFFF
:1024600010B5044610461946034BD3E9002300F08B
:102470005FFDC4E9020110BD88000010F0B4C40083
:1024800004F018044901C9B202F01F021143A1402F
:1024900082081E4F02F5607257F82250FF2606FA96
:1024A00004F425EA0404214347F822100122824063
:1024B00017494A620C6824EA02040C60E3B9144B21
:1024C0009A602030C0B243B2002B08DB00F01F043A
:1024D0005A090121A14060320E4C44F82210002B11
:1024E00008DB00F01F005B09012202FA00F0094A34
:1024F00042F82300F0BC7047012B03D0044B9A60D4
:102500005A61DEE7024B5A61DBE700BF006008401A
:102510000070084000E100E010B42030C0B243B2C7
:10252000002B08DB00F01F045A090121A140603292
:102530000A4C44F82210002B0DDB00F01F005B0951
:10254000012202FA00F02033044A42F82300BFF3CC
:102550004F8FBFF36F8F5DF8044B704700E100E0D1
:10256000012303FA00F0014B5862704700700840E5
:10257000F8B5124B1A5C124BD969012383400B4208
:102580000CD010498C6802EB4202D1000E4A0A447A
:1025900054600B4AD361FFF7E3FFF8BD09498E6829
:1025A000094D51008F18FC0027462C44A660646832
:1025B000361B3D44EE60024A1362ECE7E84B001A1A
:1025C00000700840004008409400001008B5002149
:1025D0002020FFF7A9FA08BD08B501212020FFF748
:1025E000A3FA08BD2DE9F04104460F4600293DD16C
:1025F000234B1B78FBB9DFF88C8066003319DD00B4
:102600004544002195F91000FFF7B8F995F913102A
:1026100095F914200223D2B2C9B2A87CFFF72EFF8D
:10262000174B1B7863B904EB4404E200154B1344C9
:102630005F74BDE8F08101212020FFF79FF9DAE700
:102640004EF66020FFF7C0FB0F4A01460020FFF75F
:102650002BFB0A20FFF7B8FB0C4B024601210020A0
:10266000FFF7B6FB064B00221A70DCE700EB4003D5
:10267000DA00044B1344987CFFF74EFFD3E700BF0A
:102680009000001094000010D925001ACD25001AE2
:1026900000EB4000C2000B4B1344DB680A4AA2FB6C
:1026A0000323DB0907EE903AF8EE677A21B99FED34
:1026B000077A87EE870A70479FED057A87EE870ACB
:1026C000704700BF94000010A1A0A0A000006842C5
:1026D0000000144308B50020FFF74AFF08BD08B505
:1026E0000120FFF745FF08BD08B50220FFF740FFB6
:1026F00008BDFFFF81F0004102E000BF83F000430E
:1027000030B54FEA41044FEA430594EA050F08BF8C
:1027100090EA020F1FBF54EA000C55EA020C7FEA50
:10272000645C7FEA655C00F0E2804FEA5454D4EBCD
:102730005555B8BF6D420CDD2C4480EA020281EA97
:10274000030382EA000083EA010180EA020281EACF
:102750000303362D88BF30BD11F0004F4FEA013121
:102760004FF4801C4CEA113102D0404261EB410130
:1027700013F0004F4FEA03334CEA133302D05242B6
:1027800063EB430394EA050F00F0A780A4F1010472
:10279000D5F1200E0DDB02FA0EFC22FA05F28018AC
:1027A00041F1000103FA0EF2801843FA05F3594192
:1027B0000EE0A5F120050EF1200E012A03FA0EFC11
:1027C00028BF4CF0020C43FA05F3C01851EBE3713B
:1027D00001F0004507D54FF0000EDCF1000C7EEB58
:1027E00000006EEB0101B1F5801F1BD3B1F5001F96
:1027F0000CD349085FEA30004FEA3C0C04F10104B5
:102800004FEA445212F5800F80F09A80BCF1004FDD
:1028100008BF5FEA500C50F1000041EB045141EA5F
:10282000050130BD5FEA4C0C404141EB010111F460
:10283000801FA4F10104E9D191F0000F04BF01460B
:102840000020B1FA81F308BF2033A3F10B03B3F1E9
:1028500020020CDA0C3208DD02F1140CC2F10C0279
:1028600001FA0CF021FA02F10CE002F11402D8BFD7
:10287000C2F1200C01FA02F120FA0CFCDCBF41EAA3
:102880000C019040E41AA2BF01EB0451294330BD72
:102890006FEA04041F3C1CDA0C340EDC04F114044F
:1028A000C4F1200220FA04F001FA02F340EA030026
:1028B00021FA04F345EA030130BDC4F10C04C4F16C
:1028C000200220FA02F001FA04F340EA030029464C
:1028D00030BD21FA04F0294630BD94F0000F83F496
:1028E000801306BF81F480110134013D4EE77FEA79
:1028F000645C18BF7FEA655C29D094EA050F08BFC5
:1029000090EA020F05D054EA000C04BF19461046A5
:1029100030BD91EA030F1EBF0021002030BD5FEAE9
:10292000545C05D14000494128BF41F0004130BD11
:1029300014F580043CBF01F5801130BD01F0004565
:1029400045F0FE4141F470014FF0000030BD7FEAD8
:10295000645C1ABF194610467FEA655C1CBF0B46D3
:10296000024650EA013406BF52EA033591EA030FEA
:1029700041F4002130BD00BF90F0000F04BF0021E2
:10298000704730B54FF4806404F132044FF0000515
:102990004FF0000150E700BF90F0000F04BF00218E
:1029A000704730B54FF4806404F1320410F00045F4
:1029B00048BF40424FF000013EE700BF42004FEAEF
:1029C000E2014FEA31014FEA02701FBF12F07F436C
:1029D00093F07F4F81F06051704732F07F4208BF23
:1029E000704793F07F4F04BF41F40021704730B52A
:1029F0004FF4607401F0004521F000411CE700BF76
:102A000050EA010208BF704730B54FF000050AE0F8
:102A100050EA010208BF704730B511F0004502D5F9
:102A2000404261EB41014FF4806404F132045FEAFB
:102A3000915C3FF4D8AE4FF003025FEADC0C18BFA4
:102A400003325FEADC0C18BF033202EBDC02C2F196
:102A5000200300FA03FC20FA02F001FA03FE40EA28
:102A60000E0021FA02F11444BDE600BF70B54FF02C
:102A7000FF0C4CF4E06C1CEA11541DBF1CEA13550A
:102A800094EA0C0F95EA0C0F00F0DEF82C4481EA72
:102A9000030621EA4C5123EA4C5350EA013518BF92
:102AA00052EA033541F4801143F4801338D0A0FB7F
:102AB00002CE4FF00005E1FB02E506F00042E0FB2C
:102AC00003E54FF00006E1FB03569CF0000F18BF32
:102AD0004EF0010EA4F1FF04B6F5007F64F54074DA
:102AE00004D25FEA4E0E6D4146EB060642EAC6216D
:102AF00041EA55514FEAC52040EA5E504FEACE2EDA
:102B0000B4F1FD0C88BFBCF5E06F1ED8BEF1004FDC
:102B100008BF5FEA500E50F1000041EB045170BD58
:102B200006F0004646EA010140EA020081EA03019C
:102B3000B4EB5C04C2BFD4EB0C0541EA045170BD98
:102B400041F480114FF0000E013C00F3AB8014F112
:102B5000360FDEBF002001F0004170BDC4F100045B
:102B6000203C35DA0C341BDC04F11404C4F12005DC
:102B700000FA05F320FA04F001FA05F240EA020037
:102B800001F0004221F0004110EBD37021FA04F66D
:102B900042EB06015EEA430E08BF20EAD37070BD27
:102BA000C4F10C04C4F1200500FA04F320FA05F086
:102BB00001FA04F240EA020001F0004110EBD37088
:102BC00041F100015EEA430E08BF20EAD37070BDF8
:102BD000C4F1200500FA05F24EEA020E20FA04F3D1
:102BE00001FA05F243EA020321FA04F001F0004180
:102BF00021FA04F220EA020000EBD3705EEA430EF1
:102C000008BF20EAD37070BD94F0000F0FD101F01F
:102C10000046400041EB010111F4801F08BF013C58
:102C2000F7D041EA060195F0000F18BF704703F096
:102C30000046520043EB030313F4801F08BF013D1D
:102C4000F7D043EA0603704794EA0C0F0CEA1355D9
:102C500018BF95EA0C0F0CD050EA410618BF52EA93
:102C60004306D1D181EA030101F000414FF0000099
:102C700070BD50EA410606BF1046194652EA4306A7
:102C800019D094EA0C0F02D150EA013613D195EA1B
:102C90000C0F05D152EA03361CBF104619460AD163
:102CA00081EA030101F0004141F0FE4141F470016D
:102CB0004FF0000070BD41F0FE4141F4780170BD5D
:102CC00070B54FF0FF0C4CF4E06C1CEA11541DBFC2
:102CD0001CEA135594EA0C0F95EA0C0F00F0A7F8C4
:102CE000A4EB050481EA030E52EA03354FEA0131F1
:102CF00000F088804FEA03334FF0805545EA131304
:102D000043EA12634FEA022245EA111545EA1065CB
:102D10004FEA00260EF000419D4208BF964244F162
:102D2000FD0404F5407402D25B084FEA3202B61A81
:102D300065EB03055B084FEA32024FF480104FF455
:102D4000002CB6EB020E75EB030E22BFB61A7546C9
:102D500040EA0C005B084FEA3202B6EB020E75EB5C
:102D6000030E22BFB61A754640EA5C005B084FEAC4
:102D70003202B6EB020E75EB030E22BFB61A754691
:102D800040EA9C005B084FEA3202B6EB020E75EB9C
:102D9000030E22BFB61A754640EADC0055EA060E5D
:102DA00018D04FEA051545EA16754FEA06164FEAA0
:102DB000C30343EA52734FEAC2025FEA1C1CC0D14C
:102DC00011F4801F0BD141EA00014FF000004FF0D9
:102DD000004CB6E711F4801F04BF01430020B4F19A
:102DE000FD0C88BFBCF5E06F3FF6AFAEB5EB030C52
:102DF00004BFB6EB020C5FEA500C50F1000041EB4F
:102E0000045170BD0EF0004E4EEA113114EB5C041B
:102E1000C2BFD4EB0C0541EA045170BD41F48011EE
:102E20004FF0000E013C90E645EA060E8DE60CEAF6
:102E3000135594EA0C0F08BF95EA0C0F3FF43BAF13
:102E400094EA0C0F0AD150EA01347FF434AF95EACA
:102E50000C0F7FF425AF104619462CE795EA0C0FAE
:102E600006D152EA03353FF4FDAE1046194622E77B
:102E700050EA410618BF52EA43067FF4C5AE50EA55
:102E800041047FF40DAF52EA43057FF4EBAE12E745
:102E90004FEA4102B2F1E04324BFB3F5001CDCF17C
:102EA000FE5C0DD901F0004C4FEAC0024CEA5070B4
:102EB000B2F1004F40EB830008BF20F001007047E3
:102EC00011F0804F21D113F13872BCBF01F00040E6
:102ED000704741F480114FEA5252C2F11802C2F118
:102EE000200C10FA0CF320FA02F018BF40F0010099
:102EF0004FEAC1234FEAD32303FA0CFC40EA0C004B
:102F000023FA02F34FEA4303CCE77FEA625307D187
:102F100050EA01331EBF4FF0FE4040F440007047BE
:102F200001F0004040F0FE4040F40000704700BF58
:102F300053B94AB9002908BF00281CBF4FF0FF3120
:102F40004FF0FF3000F074B9ADF1080C6DE904CE1C
:102F500000F006F8DDF804E0DDE9022304B0704774
:102F60002DE9F047089E04468846002B40F08580F6
:102F70008A42154648D9B2FA82F24AB1C2F1200714
:102F800001FA02F320FA07F7954047EA0308944054
:102F90004FEA154E230CB8FBFEF71FFA85FC0EFB1B
:102FA000178843EA084307FB0CF1994209D9EB184B
:102FB00007F1FF3080F0E380994240F2E080023F69
:102FC0002B445B1AA4B2B3FBFEF00EFB103344EAB1
:102FD000034400FB0CFCA44509D92C1900F1FF3374
:102FE00080F0CB80A44540F2C88002382C4440EAEF
:102FF0000740A4EB0C0400271EB1D4400023C6E90F
:1030000000433946BDE8F087002A53D0B2FA82F275
:10301000002A40F0B680491B4FEA154E1FFA85F88A
:103020000127B1FBFEFC230C0EFB1C1143EA0143FC
:1030300008FB0CF1994207D9EB180CF1FF3002D2D2
:10304000994200F2EC808446591AA3B2B1FBFEF01B
:103050000EFB101443EA044408FB00F8A04507D90E
:103060002C1900F1FF3302D2A04500F2DC80184693
:10307000A4EB080440EA0C40BEE78B4208D9002EBE
:1030800078D00027C6E9000138463946BDE8F08708
:10309000B3FA83F77FB98B4202D3824200F2BD803C
:1030A000841A61EB030301209846002EA9D0C6E9DB
:1030B0000048A6E7FFDEC7F12005BB4022FA05FC69
:1030C0004CEA030C01FA07F420FA05F821FA05F39B
:1030D0004FEA1C4E48EA0404B3FBFEF9210C0EFB38
:1030E00019331FFA8CF841EA034309FB08FA9A45A1
:1030F00002FA07F200FA07F10BD91CEB030309F1FE
:10310000FF3080F088809A4540F28580A9F102095D
:103110006344A3EB0A03A4B2B3FBFEF00EFB10332F
:1031200044EA034400FB08F8A04508D91CEB04045A
:1031300000F1FF336BD2A04569D90238644440EAFC
:103140000940A4EB0804A0FB02894C45C6464B4647
:1031500054D351D0002E69D0B1EB0E0264EB0304BE
:1031600004FA05F522FA07F3FC401D43C6E90054B2
:10317000002746E73746304643E7184637E7074615
:103180001FE7C2F1200320FA03F7954001FA02F08D
:1031900021FA03F34FEA154E3843010CB3FBFEF757
:1031A0001FFA85F80EFB173341EA034107FB08F3CA
:1031B0008B4204FA02F407D9691807F1FF3C28D2C0
:1031C0008B4226D9023F2944CB1A81B2B3FBFEF0D1
:1031D0000EFB103341EA034100FB08F38B4207D991
:1031E000691800F1FF3C10D28B420ED902382944F5
:1031F000C91A40EA074714E74145ABD2B8EB020EC3
:1032000069EB0C0201381346A4E76046F0E7184664
:1032100095E76746D8E781467BE7384645E7ACF156
:10322000020C2B4410E702382C4421E73746E8E62D
:10323000704700BF0A22002101F03EB870B5054674
:103240000C4611B90026304670BD18B183690BB920
:1032500000F082F92C4B9C4214D16C68636ED80745
:1032600005D4A389990502D4A06D00F039FBB4F907
:103270000C308BB9666E16F00106E3D1A06D00F03C
:1032800030FBE0E7214B9C4201D1AC68E6E7204BE4
:103290009C4208BFEC68E1E72146284600F042F86E
:1032A000236B064633B1216A284698470028B8BFE9
:1032B0004FF0FF36A3891A0603D52169284600F08E
:1032C00019FB616B41B104F14403994202D02846D5
:1032D00000F010FB00236363A16C21B1284600F0CD
:1032E00009FB0023A36400F01FF90023A381636E90
:1032F000DB0702D4A06D00F0F4FAA06D00F0EFFA45
:1033000000F018F99FE700BF0C4D001A2C4D001A71
:10331000EC4C001A024B01461868FFF78FBF00BF44
:10332000DC0000108A892DE9F041054610070C46A3
:1033300058D44B68002B05DC0B6C002B02DC002002
:10334000BDE8F081E66A002EF9D0002312F4805225
:103350002F682B6032D0606DA3895A0705D563684A
:10336000C01A636B0BB1236CC01A00230246E66AD5
:10337000216A2846B047431CA38906D129681D2924
:1033800049D82A4ACA40D60745D500226260D904E6
:103390002269226004D5421C01D12B6803B9606503
:1033A000616B2F600029CAD004F14403994202D016
:1033B000284600F09FFA00206063C1E7216A0123DC
:1033C0002846B047411CC7D12B68002BC4D01D2B09
:1033D00001D0162B01D12F60B1E7A38943F0400340
:1033E000A381ADE70F69002FA9D093070E6808BF2E
:1033F0004B690F6018BF0023A6EB07088B60B8F17C
:10340000000F9CDD43463A46216AA66A2846B0472B
:10341000002806DCA38943F04003A3814FF0FF306E
:103420008EE70744A8EB0008E9E700BF0100402051
:1034300038B50B6905460C4613B90025284638BD3A
:1034400018B183690BB900F087F8144B9C421BD16B
:103450006C68B4F90C30002BEFD0626ED00704D446
:10346000990502D4A06D00F03BFA28462146FFF7EB
:1034700059FF636EDA070546E0D4A3899B05DDD4C6
:10348000A06D00F02EFAD9E7054B9C4201D1AC6843
:10349000DFE7044B9C4208BFEC68DAE70C4D001AEA
:1034A0002C4D001AEC4C001A002310B50446C0E95C
:1034B0000033836081814366C281C0E90433836144
:1034C000194608225C3000F00DFA054B6362054B8B
:1034D000A362054BE362054B2462236310BD00BF6A
:1034E0002D41001A4F41001A8741001AAB41001AC2
:1034F000014900F0B1B900BF3134001A70B54A1E5D
:10350000682555430E4605F1740100F041FA044662
:1035100040B10021C0E900160C30A06005F168023E
:1035200000F0E0F9204670BD014800F0D9B900BFB5
:10353000B8010010014800F0D4B900BFB801001074
:10354000014800F0CDB900BFB3010010014800F000
:10355000C8B900BFB301001010B50446FFF7F0FF73
:10356000A3691BB1BDE81040FFF7F0BFC4E91233F7
:103570002365134B134A1B68A262A34204BF0123B5
:10358000A361204600F020F86060204600F01CF89F
:10359000A060204600F018F80022E0600421606876
:1035A000FFF782FF01220921A068FFF77DFF0222B9
:1035B0001221E068FFF778FF0123A361D2E700BF83
:1035C0004C4D001AF134001AF8B50746FFF7ACFF6E
:1035D0001E4B1E68B36913B93046FFF7BDFF48366E
:1035E000D6E90134013B03D533680BB33668F7E7FE
:1035F000B4F90C50D5B9164BE36004F15800656678
:1036000000F06CF9FFF796FF2560C4E90155C4E9A5
:103610000455A5610822294604F15C0000F062F916
:10362000C4E90D55C4E912552046F8BD6834D9E700
:1036300004213846FFF762FF044630600028D5D1E8
:10364000FFF778FF0C233B60EEE700BF4C4D001AFC
:103650000100FFFF70B54C6906460D4684B100F0CD
:10366000F5FE002303606B6928689847041E07DA9B
:1036700000F0ECFE03681BB100F0E8FE0368336065
:103680003046294600F036F9204670BD2DE9F0415C
:1036900098464B6817469A89D20506460C4604D5CB
:1036A000DD6A15B102230022A84700F0CFFE0023F7
:1036B00003604246E368206839469847041E07DAEB
:1036C00000F0C4FE03681BB100F0C0FE0368336065
:1036D0002046BDE8F0812DE9F0410C46174698469A
:1036E000054600F0B3FE00230360A668206842464A
:1036F0003946B047041E07DA00F0A8FE03681BB184
:1037000000F0A4FE03682B602046BDE8F081F7B509
:103710000C461F460192054600F098FE0023036008
:10372000266920683A4601A9B047002807DA00F068
:103730008DFE03681BB100F089FE03682B600198C1
:1037400003B0F0BD82B02DE9F3478A46114601AAC5
:1037500005460B939946DDE90C8700F07DFE064691
:1037600030B90024204602B0BDE8F04702B07047EF
:1037700010F0140F02D0B9F1000F05D016F0180F99
:1037800005D0B8F1000F02D116232B60E9E72846D7
:10379000FFF71AFF04460028E3D02846182100F05E
:1037A000F7F8054640B9FFF7BFFEA06DA58100F010
:1037B00096F8FFF7BFFED4E7636ED80705D4A38958
:1037C000990502D4A06D00F08BF84FF6FF73E381EA
:1037D0000F4BA681002FC5E900A42562C5F808900B
:1037E00063620C4BC5F80C80A3620B4B2F6108BFC2
:1037F0000023E3620E9B6B61084B2363636EDA0761
:10380000B0D4B305AED4A06D00F06BF8AAE700BF4A
:10381000D736001A8D36001A0F37001A5536001A9F
:1038200082B030B585B00D4608A981E80C0009AB1F
:10383000044693E807008DE807000648089B0068E7
:103840002A462146FFF77EFF05B0BDE8304002B0B2
:10385000704700BFDC0000102DE9F8438046894620
:1038600000F14804002614B93046BDE8F883D4E9D5
:103870000175013F01D52468F5E7AB89012B07D914
:10388000B5F90E30013303D029464046C8470643F8
:103890006835EEE770B50D4D0D4C641BA410002685
:1038A000A64209D10B4D0C4CFDF763F8641BA41024
:1038B0000026A64205D170BD55F8043B9847013655
:1038C000EEE755F8043B98470136F2E7844D001ABD
:1038D000844D001A844D001A884D001A70477047B5
:1038E0007047704702440346934200D1704703F883
:1038F000011BF9E738B50546002945D051F8043CCD
:103900000C1F002BB8BFE41800F092FE1F4A13688A
:10391000104633B9636014602846BDE8384000F0B3
:103920008DBEA3420CD921686218934204BF1A6865
:103930005B68636004BF521822600460ECE71346C2
:103940005A680AB1A242FAD919685818A0420BD194
:1039500020680144581882421960DDD1106852680D
:103960005A6001441960D7E702D90C232B60D3E7D2
:10397000206821188A4204BF11685268626004BF3F
:10398000091821605C60C7E738BD00BF88010010DE
:10399000F8B5CD1C25F0030508350C2D38BF0C25D6
:1039A000002D064601DBA94203D90C233360002019
:1039B000F8BD00F03DFE21490A6814469CB9204F2D
:1039C0003B6823B921463046FDF728F83860294680
:1039D0003046FDF723F8431C23D10C2333603046D7
:1039E00000F02CFEE3E723685B1B17D40B2B03D9F5
:1039F00023601C44256004E06368A2420CBF0B6096
:103A00005360304600F01AFE04F10B00231D20F035
:103A10000700C21ACCD01B1AA350C9E7224664681B
:103A2000CCE7C41C24F00304A042E3D0211A3046A2
:103A3000FCF7F4FF0130DDD1CFE700BF88010010B3
:103A40008C0100109368013B002B10B4936008DADE
:103A50009469A34201DB0A2903D15DF8044B00F00D
:103A600035BC1368581C1060197008465DF8044B8B
:103A70007047F8B506460F461446D518AC4201D13A
:103A8000002007E03A4614F8011B3046FFF7DAFF42
:103A9000431CF3D1F8BDFFFF2DE9F04F0D469DB05B
:103AA00014461E46074618B183690BB9FFF754FD4B
:103AB000854B9D421BD17D686B6ED90705D4AB89C0
:103AC0009A0502D4A86DFFF70BFFAB891B0701D540
:103AD0002B69EBB92946384600F04AFCC0B16B6E41
:103AE000D8070ED54FF0FF301DB0BDE8F08F774BF3
:103AF0009D4201D1BD68DFE7754B9D4208BFFD685F
:103B0000DAE7AB899905EDD4A86DFFF7EAFEE9E79E
:103B10000023099320238DF82930DFF8B89103960C
:103B200030238DF82A304FF0010A23461E4613F841
:103B3000012B0AB1252AF9D1B6EB040B0BD05B4659
:103B4000224629463846FFF794FF013000F0A38053
:103B5000099B5B4409933378002B00F09C80002381
:103B60004FF0FF32CDE905230136049307938DF81A
:103B700053301A933446052214F8011B554800F0BF
:103B800007FD049BC0B9DA0644BF20228DF85320FC
:103B9000180744BF2B228DF8532032782A2A13D0DD
:103BA000079A344600200A26214611F8013B303B93
:103BB000092B4BD970B914E0A0EB09000AFA00F008
:103BC000184304902646D5E7039A111D1268039105
:103BD000002A01DB079204E0524243F002030792FD
:103BE000049323782E2B0CD163782A2B33D1039B9B
:103BF0001A1D1B680392002BB8BF4FF0FF3302342D
:103C00000593354E21780322304600F0C1FC38B1CF
:103C10004023801B03FA00F0049B03430134049308
:103C200014F8011B2D488DF82810062200F0B0FC76
:103C300000283FD02A4B13BB039B073323F0070315
:103C400008330393099B434409936EE706FB023252
:103C500001200C46A8E700230134059319460A26E3
:103C6000204610F8012B303A092A03D9002BC8D07E
:103C70000591C6E706FB012101230446F0E703ABEB
:103C800000932A46174B04A93846AFF30080B0F1E1
:103C9000FF3F8046D6D16B6ED90705D4AB899A0514
:103CA00002D4A86DFFF71DFEAB895B063FF51AAF86
:103CB000099819E703AB00932A460A4B04A9384632
:103CC00000F092F8E3E700BF0C4D001A2C4D001AEB
:103CD000EC4C001A504D001A564D001A5A4D001A5D
:103CE00000000000733A001A13460A4601460248D3
:103CF0000068FFF7D1BE00BFDC0000102DE9F047DF
:103D000091461F468A680B69DDF820809342B8BF50
:103D10001346C9F8003091F8432006460C4612B10C
:103D20000133C9F800302368990642BFD9F8003042
:103D30000233C9F80030256815F0060507D104F1F3
:103D4000190AE368D9F800209B1AAB4228DC94F8E2
:103D500043302268003318BF012392062DD404F1AA
:103D6000430239463046C047013020D02368E56819
:103D7000D9F8002003F00603042B08BFAD1AA3688E
:103D800022690CBF25EAE57500259342C4BF9B1A42
:103D9000ED184FF000091A344D451AD1002008E003
:103DA0000123524639463046C047013003D14FF017
:103DB000FF30BDE8F0870135C3E7E1185A1C302019
:103DC00081F84300224494F8451082F843100233EE
:103DD000C5E70123224639463046C0470130E6D0C8
:103DE00009F10109D8E7FFFF2DE9F04306460C462B
:103DF00001F14300097E85B06E29984617460C9B59
:103E000000F0BA8024D8632939D00AD8002900F0FC
:103E1000C380582900F0918004F1420584F84210D3
:103E200035E0642901D06929F6D125681A6815F0B2
:103E3000800F02F104012CD012681960002A03DA05
:103E40002D23524284F84330DFF8BCC10A233FE0FF
:103E5000732900F0A58008D86F2921D07029DBD103
:103E6000226842F02002226003E0752918D07829E8
:103E7000D2D1782284F84520DFF890C161E01A6839
:103E8000111D1960136884F8423004F142050123C2
:103E900093E01268196015F0400F18BF12B2CDE719
:103EA000D4F800C01A681CF0800F02F104051D60F0
:103EB00001D0126803E01CF0400FFAD01288DFF83E
:103EC00048C16F290CBF08230A23002184F843103E
:103ED0006568A560002DA2BF216821F00401216062
:103EE0000AB9002D46D00546B2FBF3F103FB112EB3
:103EF00093421CF80EE005F801ED39D9082B0BD1DF
:103F00002368DA0708D5236962689A42DEBF302346
:103F100005F8013C05F1FF35401B2061CDF800801C
:103F20003B4603AA21463046FFF7E8FE013049D15F
:103F30004FF0FF3005B0BDE8F083DFF8CCC084F867
:103F400045101D68216855F8042B1D600D060BD522
:103F5000CD0744BF41F0200121601AB9236823F046
:103F6000200323601023B0E74B0648BF92B2EFE76F
:103F70000A46B9E70546C1E71A68D4F800C0616986
:103F8000151D1D601CF0800F136801D0196003E03F
:103F90001CF0400FFAD01980002323610546BDE7CD
:103FA0001A68111D1960156862680021284600F022
:103FB000EFFA08B1401B606063682361002384F856
:103FC0004330ABE723692A4639463046C0470130C3
:103FD000AED023689B0713D4E068039B9842B8BF18
:103FE0001846A7E701234A4639463046C047013004
:103FF0009ED00135E368039A9B1AAB42F2DCEBE7F3
:10400000002504F11909F5E7614D001A724D001AF7
:104010000FB40A4B13B51C6824B1A36913B9204629
:10402000FFF79AFA05AB049AA16801932046FFF7BF
:1040300033FD02B0BDE8104004B07047DC00001052
:1040400070B50E46054618B183690BB9FFF784FABF
:10405000AB69AC6813B92846FFF77EFA2C4B9C423B
:1040600020D16C68636EDB0705D4A389980502D460
:10407000A06DFFF735FCA38919071DD52369DBB1B6
:10408000013EA36816F8011F013BA36039BB002B5A
:1040900038DA22460A21284600F018F9013011D0FA
:1040A0000A2511E01B4B9C4201D1AC68DAE71A4BA0
:1040B0009C4208BFEC68D5E72146284600F058F935
:1040C0000028DDD04FF0FF35636EDA0705D4A389F1
:1040D0009B0502D4A06DFFF704FC284670BD002BA1
:1040E00004DAA2699A4206DC0A2904D023685A1C21
:1040F00022601970C5E72246284600F0E7F8013033
:10410000BFD1DFE723680A255A1C22601D70DBE758
:104110000C4D001A2C4D001AEC4C001A024B0146B3
:104120001868FFF78DBF00BFDC00001010B50C460B
:10413000B1F90E10FCF736FC0028ABBF636DA38904
:104140001B1823F48053ACBF6365A38110BD2DE918
:10415000F0411F468B89DB0505460C46164605D502
:1041600002230022B1F90E10FCF717FCA389B4F961
:104170000E1023F48053A38132463B462846BDE807
:10418000F041FCF736BC10B50C46B1F90E10FCF747
:1041900004FC431CA38915BF606523F4805343F4DA
:1041A0008053A38118BFA38110BDB1F90E10FCF795
:1041B000E1BB10F8012B11F8013B012A28BF9A42FC
:1041C000F7D0D01A7047FFFF2DE9F047394F8646E8
:1041D0000846054615F8014BE65D16F0080634D191
:1041E0002D2C34D12C784FF00108851C002B5CD08D
:1041F000102B09D1302C07D1287800F0DF00582887
:104200004ED16C7810230235B8F1000F14BF4FF077
:10421000004C6FF0004C0027BCFBF3F9384603FB61
:1042200019CAA4F13006092E18D83446A34224DD59
:104230007E1C07D081451DD301D1A2451ADB00FBAE
:104240000340012715F8014BEBE72846C1E72B2C6B
:1042500008BF2C78B04608BF851CC7E7A4F141060B
:10426000192E01D8373CE1E7A4F16106192E04D8D4
:10427000573CDBE74FF0FF37E4E77B1C06D12223F6
:10428000CEF80030604642B9BDE8F087B8F1000FC3
:1042900000D04042002AF7D007B1691E1160F3E751
:1042A0003024002BB0D10823AEE7302CA4D00A2351
:1042B000AAE700BFEC4B001A13460A460146024823
:1042C0000068FFF781BF00BFDC000010F8B50E46A4
:1042D0001446054618B183690BB9FFF73DF9214B28
:1042E0009C422BD16C68A369A360A3891A072FD5C0
:1042F00023696BB323692068C01A6369F6B28342ED
:10430000374604DC21462846FFF792F830BBA36805
:10431000013BA36023685A1C22601E706369013050
:10432000834204D0A389DB0706D50A2E04D1214697
:104330002846FFF77DF888B93846F8BD0A4B9C42FD
:1043400001D1AC68CFE7094B9C4208BFEC68CAE7D3
:104350002146284600F00CF80028CBD04FF0FF375C
:10436000EAE700BF0C4D001A2C4D001AEC4C001A65
:10437000324B70B51D6806460C4625B1AB6913B9C2
:104380002846FFF7E9F82E4B9C420FD16C68B4F930
:104390000C309AB215072CD4D00611D40922326001
:1043A00043F04003A3814FF0FF303EE0254B9C4299
:1043B00001D1AC68EBE7244B9C4208BFEC68E6E710
:1043C000510712D5616B41B104F14403994202D007
:1043D0003046FFF78FFA00236363A38923F0240399
:1043E000A3810023636023692360A38943F008034A
:1043F000A38123694BB9A38903F42073B3F5007F2C
:1044000003D02146304600F081F8A28912F0010362
:104410000CD00023A36063695B42A361236953B995
:10442000B4F90C3013F08000BAD170BD920758BFB8
:104430006369A360F2E70020F7E700BFDC0000102B
:104440000C4D001A2C4D001AEC4C001A014B186848
:10445000704700BFDC0000100B78722B30B522D003
:10446000772B24D0612B27D016230360002030BD8A
:10447000622D12D0782D13D02B2D07D120F01C00E7
:1044800023F0030340F0100043F0020311F8015F32
:10449000002DEDD123431360E9E743F48033F5E7C2
:1044A00043F40063F2E7002423460420EEE74FF4D0
:1044B000C06401230820E9E74FF4027401234FF49C
:1044C0008470E3E770B50E46B1F90E10002996B07E
:1044D00014461D4607DA00232B60B3891A0610D450
:1044E0004FF480630EE06A46FCF749FA0028F2DBDD
:1044F000019A02F47042A2F500535A425A412A60CE
:10450000EEE740230020236016B070BD8B8973B5A1
:104510009D0706460C4607D504F147032360236137
:104520000123636102B070BD01AB6A46FFF7CAFFA9
:10453000009905463046FFF72BFA48B9B4F90C301C
:104540009A05EFD423F0030343F00203A381E3E7CA
:104550000D4BB362A389206043F08003A381009BCD
:104560006361019B20615BB1B4F90E103046FCF72A
:104570000BFA28B1A38923F0030343F00103A381BD
:10458000A3891D43A581CDE7F134001AFFFFFFFF8A
:1045900001F0FF01102A2BDB10F0070F08D010F8F4
:1045A000013B013A8B422DD010F0070F42B3F6D1F8
:1045B000F0B441EA012141EA014122F007047FF011
:1045C00000070023F0E80256083C85EA010586EA68
:1045D000010685FA47F5A3FA87F586FA47F6A5FAA4
:1045E00087F68EB9EED1F0BC01F0FF0102F00702B0
:1045F00032B110F8013B013A83EA010313B1F8D15B
:104600000020704701387047002D06BF354603383B
:10461000073815F0010F07D1013015F4807F02BF74
:10462000013015F4C03F0130F0BC0138704700BFC5
:104630000148FFF755B900BFB40100100148FFF76A
:1046400050B900BFB401001041540D0A0000000031
:104650004F4B0D0A00FFFFFF7A79787776757473F8
:104660007271706F6E6D6C6B6A69686766656463A2
:1046700062613938373635343332313031323334A0
:1046800035363738396162636465666768696A6BB5
:104690006C6D6E6F707172737475767778797A005D
:1046A000554152545F504320636F6E66696775725F
:1046B0006164612E0D0A0000554152545F424C5511
:1046C00045544F4F54482070617261206D6F64757E
:1046D0006C6F20426C7565746F6F746820636F6EC9
:1046E00066696775726164612E0D0A0054657374A2
:1046F00065746F20736920656C206D6F64756C6FD5
:10470000206573746120636F6E65637461646F20EC
:10471000656E7669616E646F3A2041540D0A00003F
:104720004D6F64756C6F20636F6E65637461646F49
:1047300020636F7272656374616D656E74652E0DB2
:104740000A0000004E6F2066756E63696F6E612E01
:104750000D0A0000526563656976656420636F6DBC
:104760006D616E643A2025730D0A00005455524E57
:104770005F4F4E004164656E74726F206465205413
:1047800055524E204F4E200D000000005455524E01
:104790005F4F4646000000004164656E74726F20F2
:1047A0006465205455524E204F4646200D000000AF
:1047B00043485F540000000043616D6269612065F9
:1047C0006C2076616C6F72206465207363616E5F2C
:1047D000706572696F6420613A202564200D0A00BB
:1047E00043485F480000000043616D6269612065D5
:1047F0006C2076616C6F72206465206D696E5F68F5
:10480000756D696469747920613A20256420200DF2
:104810000A00000043485F440000000043616D62ED
:10482000696120656C2076616C6F7220646520720E
:104830006563697069656E745F686569676874202F
:10484000613A202564200D0A00000000526563656E
:104850006976656420756E6B6E6F776E20636F6D21
:104860006D616E643A2025730D0A00FF66616C73FA
:10487000650000007472756500FFFFFF7B227761A1
:104880007465725F6C6576656C223A2025642C2015
:104890002268756D6964697479223A2025642C2038
:1048A0002277617465725F70756D70223A2025738E
:1048B0002C20226D696E5F68756D69646974792258
:1048C0003A2025642C2022726563697069656E74D4
:1048D0005F686569676874223A2025642C2022731A
:1048E00063616E5F706572696F64223A202564208F
:1048F0007D00FFFF010F010102004400020144009E
:1049000002024400020A4000020B4000020C400078
:10491000010050000101500001025000010650004A
:10492000060150000604500006055000060754001A
:104930000608540006095000060A5000060B5000F5
:10494000060C50000F04F0000103D5000104D5004F
:10495000070116000702560002035200020452002B
:104960000905520009065700060257000000000022
:104970000004000800090109050005010502000EF8
:10498000010B010C030003030304050F05100305CD
:10499000030603070208FFFF001BB7000001010028
:1049A000090901000A0901000107010102090100CA
:1049B000060901000C0901010D0901000E090100A1
:1049C0000F0901001009010011090100120901007D
:1049D0001309010014110100191101001A1101003D
:1049E0001B11010001020408030F0F0FFF00FFFF5E
:1049F000000005000A0020002400090040004000DB
:104A000005006000A6000400C000C3000200E00032
:104A1000E000010000010001030020012001060068
:104A2000400140010C004201420119006201620193
:104A30001300820182011200A201A2011100C20131
:104A4000C2011000E201E2010F00020202020E00A8
:104A5000220222020D00230223021C00C201A20135
:104A60008201620181008200A100A2000401000213
:104A700001070500030D0105000108040200020200
:104A800004030002030400000200070400030C03F7
:104A900002040509030104050802030405030204D6
:104AA000040504060C000208060B000307060900B3
:104AB0000305060704050F060400030304040002AF
:104AC0000404050002050406000206040804050C9F
:104AD000040A04050E010300000A011400000F017E
:104AE0001200000D011100000C0110000003070767
:104AF00000030F00010000010000000000060A0092
:104B00000306060804051006050003040601000359
:104B100000040904050D010400000B010F00000250
:104B20000100000004010100000801020000090169
:104B30000600010902000405000201040501020249
:104B4000040502020A00000E020B00010B020C0019
:104B5000010CFFFF801A06000A0000000040084018
:104B6000200000000C000000005008402100000060
:104B70000D00000000300C40220000000E0000007C
:104B800000400C40230000000F000000001008400F
:104B9000060402060502180000100840090507096E
:104BA000060718000020084000000000000019005F
:104BB00000100C400701060702061A0000100C4006
:104BC000010F010110011A0000200C400203020233
:104BD00004021B00772B00004B23001A3D23001A10
:104BE0000000000000000000000102002020202042
:104BF000202020202028282828282020202020208D
:104C0000202020202020202020202020881010106C
:104C100010101010101010101010101004040404C4
:104C20000404040404041010101010101041414139
:104C300041414101010101010101010101010101A4
:104C40000101010101010110101010101042424237
:104C50004242420202020202020202020202020274
:104C600002020202020202101010102000000000D6
:104C70000000000000000000000000000000000034
:104C80000000000000000000000000000000000024
:104C90000000000000000000000000000000000014
:104CA0000000000000000000000000000000000004
:104CB00000000000000000000000000000000000F4
:104CC00000000000000000000000000000000000E4
:104CD00000000000000000000000000000000000D4
:104CE00000000000000000000000000000000000C4
:104CF00000000000000000000000000000000000B4
:104D000000000000000000000000000000000000A3
:104D10000000000000000000000000000000000093
:104D20000000000000000000000000000000000083
:104D30000000000000000000000000000000000073
:104D4000000000000000000000000000E000001073
:104D5000232D302B2000686C4C0065666745464764
:104D600000303132333435363738394142434445E7
:104D70004600303132333435363738396162636456
:044D8000656600FF65
:044D8400D30C001A32
:084D8800D8E1FF7F01000000EB
:104D90003206FFFF60EA000000100A402200000017
:104DA000910D001A0000000000000000000000004B
:104DB0000000000000000E4001000000910D001AEC
:104DC00000000000000000000000000000000000E3
:104DD00000CB280CA71C001AA51C001AA51C001A41
:104DE000A51C001AA71C001AA51C001AA51C001A55
:104DF000A51C001AA71C001AA51C001AA51C001A45
:104E0000A51C001AA71C001AA51C001AA51C001A34
:104E1000A51C001AFFFFFFFF0100000000000000BA
:104E200001FFFFFF00000000000000000000000084
:104E3000000000001F01000304000000010000004A
:104E40000000000000000000000000001E0101053D
:104E50001000000002000000000000000000000040
:104E6000000000001D01020306000000E000001029
:104E7000000000000C4D001A2C4D001AEC4C001ADA
:104E80000000000000000000000000000000000022
:104E90000000000000000000000000000000000012
:104EA0000000000000000000000000000000000002
:104EB00000000000000000000000000000000000F2
:104EC00000000000000000000000000000000000E2
:040000051A0008E9EC
:00000001FF
